:1000000000000000D9000000C1000000C500000091
:1000100000000000000000000000000000000000E0
:10002000000000000000000000000000C900000007
:100030000000000000000000CD000000ED01000005
:10004000D5000000D5000000D5000000D50000005C
:10005000D5000000D5000000D5000000D50000004C
:10006000D5000000D50000000000000000000000E6
:100070000000000000000000D5000000D5000000D6
:10008000D5000000D5000000D5000000D50000001C
:10009000D5000000D5000000FD020000D5000000E2
:1000A000D5000000D5000000D5000000D5000000FC
:1000B0000000000000000000D5000000000000006B
:1000C000FEE7C046FEE7C046FEE7C046FEE7C04684
:1000D000FEE7C046FEE7C04608B500F051F8FEE76F
:1000E000234B10B55B6A0020DB051B0F013B0E2B79
:1000F00002D8204A9B00985803241D4A516A136F66
:100100002340022B25D0032B10D0012B07D01A48F7
:10011000174B996F00F000F9184B186010BD136C65
:100120001C40023C012CF2D80020F1E7116C0B407E
:10013000012B15D0002BF7D1C0220D4B520099682E
:100140001142E4D19B681F2018400B4B01305843EB
:10015000DEE71F2319404900023100F0DDF8D7E740
:10016000C02391685B001942D1D19368EBE7C04688
:10017000008004403C040000001BB700780400002D
:10018000F8B5FFF7ADFF00F041F800F083F8122159
:100190000022022000F09CF8FA20400000F05CF8F9
:1001A000FA200127400000F057F80D4D0D4C0E4E7F
:1001B0002368013323602368AB42F9D933780220E6
:1001C0001221012B06D0002200F072F837700023B4
:1001D0002360EDE7012200F06BF800233370F6E7AF
:1001E000FEFF0000800400007C040000054B1A683C
:1001F00001321A601B68002B03D1034A13680133D4
:1002000013607047880400008404000038B500249F
:10021000FA210C4D0C4B2C601C600C4B89001868AB
:1002200000F07AF80A4A01382C60506080200949B1
:1002300094600B6A00061B021B0A03430B62072330
:10024000136038BD880400008404000078040000B6
:1002500010E000E000ED00E00D4A116800280DD02C
:10026000C34399420BD94B1C18181368994205D8FF
:1002700013688342FCD313689942F9D97047136815
:100280005B1A9842FAD913685B1A9842F7D8F5E7D7
:100290008804000080234021044AD0580143C42030
:1002A000D150D15840040143D150704700800440E0
:1002B00001238B40191C8823002A00D18A231B01AB
:1002C0009C46A02360448000DB05C1507047C046B7
:1002D000A023DB0510B59C46802480006044A40167
:1002E0000359002A04D101228A409343035110BDCF
:1002F00001228A40111C19430151F8E708B5044B4B
:10030000044A1B6810681B681B68DB68984708BDB7
:10031000F81FFF1F00000010002243088B4274D317
:1003200003098B425FD3030A8B4244D3030B8B42F6
:1003300028D3030C8B420DD3FF22090212BA030CFF
:100340008B4202D31212090265D0030B8B4219D3E0
:1003500000E0090AC30B8B4201D3CB03C01A524100
:10036000830B8B4201D38B03C01A5241430B8B4248
:1003700001D34B03C01A5241030B8B4201D30B0331
:10038000C01A5241C30A8B4201D3CB02C01A524158
:10039000830A8B4201D38B02C01A5241430A8B421B
:1003A00001D34B02C01A5241030A8B4201D30B0204
:1003B000C01A5241CDD2C3098B4201D3CB01C01A1E
:1003C000524183098B4201D38B01C01A5241430928
:1003D0008B4201D34B01C01A524103098B4201D316
:1003E0000B01C01A5241C3088B4201D3CB00C01A83
:1003F000524183088B4201D38B00C01A52414308FB
:100400008B4201D34B00C01A5241411A00D201461F
:10041000524110467047FFE701B5002000F00CF88C
:1004200002BDC0460029F7D003B5FFF775FF0EBC2B
:100430004243891A1847C0467047C04620A10700AA
:1004400000350C00E0C81000C05C1500006A180000
:1004500040771B0080841E00C0912100009F240073
:1004600040AC2700E032290020402C00604D2F00D6
:0804700000D4300040E133002C
:04047800006CDC0236
:04000003000000D920
:00000001FF
