:1000000000800010D9000000C1000000C500000001
:1000100000000000000000000000000000000000E0
:10002000000000000000000000000000C900000007
:100030000000000000000000CD000000650300008B
:10004000D5000000D5000000D5000000D50000005C
:10005000D5000000D5000000D5000000D50000004C
:10006000D5000000D50000000000000000000000E6
:100070000000000000000000D5000000D5000000D6
:10008000D5000000D5000000D5000000D50000001C
:10009000D5000000D500000045110000D50000008B
:1000A000D5000000D5000000D5000000D5000000FC
:1000B0000000000000000000D5000000000000006B
:1000C000FEE7C046FEE7C046FEE7C046FEE7C04684
:1000D000FEE7C046FEE7C0461249134B10B59942F1
:1000E0000BD2CA43D31800229B0801330F489B0050
:1000F00084588C5004329A42FAD10D490D4B9942E2
:100100000BD2CA430020D31800229B0801339B0066
:100110008C18043220609A42FAD100F05DF800F0A9
:10012000CBF8FEE7A80100104C02001018330000C5
:1001300000010010A8010010234B10B55B6A0020DD
:10014000DB051B0F013B0E2B02D8204A9B00985861
:1001500003241D4A516A136F2340022B25D0032B21
:1001600010D0012B07D01A48174B996F00F0F8FFF9
:10017000184B186010BD136C1C40023C012CF2D8C7
:100180000020F1E7116C0B40012B15D0002BF7D1AB
:10019000C0220D4B520099681142E4D19B681F2088
:1001A00018400B4B01305843DEE71F23194049002C
:1001B000023100F0D5FFD7E7C02391685B001942F8
:1001C000D1D19368EBE7C04600800440F4300000D2
:1001D000001BB700A80100108E212020334B89009E
:1001E0005A5810B582435A50002282B01A620192C6
:1001F000019BC72B06D8C046019B01330193019B8D
:10020000C72BF8D901230022012028490B644B6435
:100210004A644B644A6C254B1042FBD023228E214A
:1002200080209A6089005A58012482435A501A1C2F
:10023000D1681E4B01200C42FAD003221A6700221B
:10024000586701245A671A1C5867516F174B0120D1
:100250000C42FAD08E22986792009C581449214093
:1002600099509C5813492140995000229864D864B1
:10027000DA64D864D96C0D4A0842FBD023230124E8
:1002800013615369094901201C42FAD00022C0239E
:10029000CA500433CA50C8500433C850802080323A
:1002A0008B58400203438B5002B010BD00800440C5
:1002B000FFFBFFFFFFFEFFFFF0B583B0FFF73CFF42
:1002C00000F060F800F072F91F210122012000F017
:1002D0008BF9FA20400000F07BF800F06BFEFA206A
:1002E000400000F075F86B461B4CDD1D1B4F1C4E8B
:1002F00005E02368013323602368B34218D800F077
:1003000053FE0028F5D0281C00F0A4FD0028F0D0F2
:100310002878031C613B192B02D82038C0B2287002
:1003200000F076FD2368013323602368B342E6D9E9
:100330003B7801201F21012B07D0002200F044F957
:1003400001233B7000232360D9E7012200F03CF930
:1003500000233B70F6E7C0460401001000010010C6
:10036000FEFF0000054B1A6801321A601B68002B63
:1003700003D1034A13680133136070470C01001066
:100380000801001038B50024FA210C4D0C4B2C60EC
:100390001C600C4B8900186800F0E2FE0A4A013824
:1003A0002C6050608020094994600B6A00061B0293
:1003B0001B0A03430B620723136038BD0C010010B6
:1003C00008010010A801001010E000E000ED00E0BE
:1003D0000D4A116800280DD0C34399420BD94B1C1C
:1003E00018181368994205D813688342FCD3136820
:1003F0009942F9D9704713685B1A9842FAD9136881
:100400005B1A9842F7D8F5E70C010010FA21064B69
:1004100010B51868054B89001C6800F0A1FE044B5C
:100420006343181810BDC0460C01001008010010ED
:100430003789410070B50568031C002D34D08288CF
:100440000020002A2FD0DA88002A2CD01C89002C0A
:1004500029D0D87B44B2002C07DD1F2420401E3C4D
:100460008440201C8024124E30511C1C9B89081C87
:100470005343E91800F01EFCA089A188013000F068
:10048000E5FF89B2A1812389013B9BB22381E37BF4
:100490005AB2002A0ADD1F2213401E3A9A40131C4A
:1004A0000120034A136070BD0020FCE70120FAE739
:1004B00000E100E0F8B5061C0D1C171C0024002A02
:1004C00006D10CE00134F388A4B2ED18BC4206D08A
:1004D000301C291CFFF7AEFF0028F3D1271C381C65
:1004E000F8BDC046036870B5041C002B40D0858859
:1004F0000020002D31D0E288002A2ED020898542AC
:100500002CD0E07B45B2002D07DD1F2528401E3D85
:100510008540281C8025174E70516089504318185B
:1005200000F0C8FB6089A5880130291C00F08EFF0F
:1005300089B261812389AB4216D0238901339BB2F2
:100540002381E37B5AB2002A0CDD1F2213401E3A9E
:100550009A40131C0120074A136070BDA07B00283D
:10056000CFD1FAE70120F8E763899BB2A381E8E7DE
:100570000020F2E700E100E0C37B5AB2002A0DDD63
:100580001F2213401E3A9A40131C802206498B50AA
:1005900000220281428182810B6070470023038127
:1005A00043818381F9E7C04600E100E080234021D8
:1005B000044AD0580143C420D150D15840040143CB
:1005C000D15070470080044001238B40191C8823C0
:1005D000002A00D18A231B019C46A023604480008E
:1005E000DB05C1507047C046A023DB0510B59C4613
:1005F000802480006044A4010359002A04D1012210
:100600008A409343035110BD01228A40111C1943B3
:100610000151F8E7F0B5474680B41F1C531E041C77
:100620000E1C9846092F11D8C518002B1BDD26700B
:100630000134AC42FBD1141C381C0A2100F016FE18
:1006400030312970201C04BC9046F0BD0A21381CB2
:1006500000F086FD311C031C4246201CFFF7DAFF28
:100660002518441CE8E7051C0124E5E7F8B5051C3E
:100670000F1C002B26DB1E1C541E092B13DD181C1F
:100680000A2100F06DFD391C031C221C281CFFF7F9
:10069000EDFF2D18441C301C0A2100F0E7FD30311D
:1006A0002970201CF8BD002C27DD00216F5401317A
:1006B000621A002AFADC002C1DDD2D19002B15DB37
:1006C0000134E8E75E42541E092E0ADD301C0A217F
:1006D00000F046FD391C4342221C281CFFF7C6FFD0
:1006E000D7E7941E002CE0DC022400E002342D2326
:1006F0002B700135CFE70124DFE70124CBE7C046AB
:10070000F0B583B0089D1E1C041C571E2B0917D181
:10071000C319002F1CDD217001349C42FBD1101C39
:100720000F221540092D08D9002E03D157351D7011
:1007300003B0F0BD37351D70FAE730351D70F7E7AF
:1007400000933A1C331CFFF7DBFF23180130E7E767
:10075000031C0120E4E7C046F0B557464E46454627
:10076000E0B4089E099D071C8A46301C291C002203
:10077000002300F08DFE002832D10023002499468A
:10078000291C301C02F026FC4B4680465146F818C6
:1007900001224346FFF73EFF2E2304193B554046F6
:1007A00002F04EFC021C0B1C301C291C02F098F8B5
:1007B0000022104B01F0FAFD00220F4B00F090FEDA
:1007C00002F008FC01343F19031C3021381C0622BA
:1007D000FFF720FF00191CBC90469946A246F0BDC9
:1007E0002D233B7080231B069C46012365449946BC
:1007F0000124C5E780842E410000E03FF8B55F4644
:1008000056464D464446F0B40A9D0B9C071C8A464A
:10081000281C211C0022002300F03AFE002800D0F2
:100820007BE0002399469B46281C211C0022404B5C
:1008300000F04CFE002600280ED0281C211C0022AF
:100840003B4B01F075F90022394B051C0C1C01369D
:1008500000F03CFE0028F0D1281C211C00220023BF
:1008600000F010FE00284AD0211C281C02F0B2FB28
:100870004B46804651460122F8184346FFF7CAFE10
:100880002E2358443B54431C40469B4602F0D8FB61
:10089000021C0B1C281C211C02F022F80022254BF4
:1008A00001F084FD0022244B00F01AFEBA4602F04B
:1008B00091FBDA44031C302150460622FFF7AAFEC2
:1008C000452358443B54431C002E21DB2B22841C1F
:1008D000FA543819331C30210222FFF7C7FE0019E1
:1008E0003CBC90469946A246AB46F8BD281C211C4C
:1008F00000220F4B01F05AFD051C0C1C013E281C68
:10090000211C00220D4B00F0C3FD0028EED1ABE707
:100910002D22841CFA547642DBE72D233B70802382
:100920001B069C460123644499469B467CE7C046CF
:100930000000244080842E410000E03F0000F03F92
:10094000F8B55F4656464D464446F0B40A9D0B9CAA
:10095000071C8A46281C211C0022002300F098FD59
:10096000002800D07BE0002399469B46281C211CD0
:100970000022404B00F0AAFD002600280ED0281CC3
:10098000211C00223B4B01F0D3F80022394B051CFF
:100990000C1C033600F09AFD0028F0D1281C211C05
:1009A0000022002300F06EFD00284AD0211C281CE4
:1009B00002F010FB4B46804651460122F818434690
:1009C000FFF728FE2E2358443B54431C40469B46C9
:1009D00002F036FB021C0B1C281C211C01F080FFBE
:1009E0000022244B01F0E2FC0022234B00F078FDB2
:1009F000BA4602F0EFFADA44031C302150460322D3
:100A0000FFF708FE452358443B54431C002E21DBCE
:100A10002B22841CFA543819331C30210222FFF790
:100A200025FE00193CBC90469946A246AB46F8BD4F
:100A3000281C211C00220F4B01F0B8FC051C0C1CCB
:100A4000033E281C211C00220C4B00F021FD002835
:100A5000EED1ABE72D22841CFA547642DBE72D233E
:100A60003B7080231B069C460123644499469B46A9
:100A70007CE7C04600408F400000E03F0000F03FB0
:100A8000F0B55F46564644464D46F0B4984683B0AE
:100A9000061C0F1C002801D0002303707D4B00258D
:100AA00099461378002B0BD0BD4200D3E7E0252BED
:100AB00012D033700132137801350136002BF3D197
:100AC000AF4200D8DBE0281C337003B03CBC90463A
:100AD0009946A246AB46F0BD5078252826D030284E
:100AE00032D020239B46541C2D2824D0031C303B9D
:100AF000092B26D800229300D2185200303A013434
:100B000012182078D2B2031C303B092BF3D9131CE6
:100B1000EB189F4201D27A1BD2B24538C0B23328BB
:100B200000D9B1E04B4680001B589F46307002321E
:100B300001350136B5E760780134031C303B092BE1
:100B4000D8D900230022E3E73023941C90789B46F9
:100B5000CAE7042343449A4643461B68301C00936B
:100B600059460023FFF7CCFDD046031C621CF61843
:100B70002D1896E7042343449A464346301C1B68CD
:100B80005946FFF747FDD046031CEFE704234344D3
:100B90009C4643461B689A461B789846002B76D0A5
:100BA000331C00204146315451460130095C013369
:100BB00088460029F6D1121A9046002A06DD9A18B6
:100BC0005946197001339342FAD14044031CE04660
:100BD000CCE708214346072088460733834318683B
:100BE000596800900191301C59469844FFF7B4FDB4
:100BF000031CBBE70821434607208846073383438D
:100C00001868596800900191301C59469844FFF7C4
:100C1000F5FD031CAAE7042343449A464346301CCF
:100C20001B685946FFF722FDD046031C9EE743464A
:100C30001B780120337004239C46033BE04495E776
:100C4000042343449A4643461B68301C009359468C
:100C50000123FFF755FDD046031C87E708214346D3
:100C6000072088460733834318685968009001912C
:100C7000301C59469844FFF763FE031C76E70023B7
:100C8000013E3370681E20E7012040421DE7331CFF
:100C9000002090E7303100000EB400B582B003AB05
:100CA00004CBFF210193FFF7EBFE02B008BC03B0B9
:100CB0001847C0460B1C034330B5051C9B070FD1DA
:100CC000032A0DD90023141FA4080134A400CD5811
:100CD000C5500433A342FAD1C518C91803231A40DA
:100CE0000023002A04D0CC5CEC5401339342FAD1A7
:100CF00030BDC04630B5031C840701D1032A08D893
:100D0000002A05D0C9B29A18197001339342FBD159
:100D100030BD041C0B060D041D430D430B021D4387
:100D2000131F9B0801339B00C31820C4A342FCD1AE
:100D300003242240E4E7C0460378002B06D00023BA
:100D40000133C25C002AFBD1181C70470023FBE76B
:100D50000020704708B5002905D004480722FFF796
:100D6000A9FF002008BD01204042FBE7140100104C
:100D700030B585B0032A02D0002005B030BD041C78
:100D800069460D320848FFF795FB084A031C1268B4
:100D9000201C126882211268156D6A46A84701223C
:100DA000034B1A70E8E7C04628020010F81FFF1F27
:100DB000100100107047C04670B584B0022A02D0FE
:100DC000002004B070BD0F4B01211B686A461B68F0
:100DD0001B685B6C984780B200280CD06C46451E9F
:100DE000ADB20135084E6519211C301C0134FFF7E6
:100DF00079FBAC42F8D10122044B1A70FFF7DAFFFD
:100E0000DEE7C046F81FFF1F380200101001001077
:100E1000F0B583B06B46DD1D2870FFF7F7FA0B4E77
:100E2000071C04E0FFF7F2FAC01B022808D8301CA8
:100E3000291CFFF757FB041EF4D0201C03B0F0BDA3
:100E4000034B301C1C70FFF797FBF6E728020010DD
:100E50001001001008B5002804D0011C0248FFF75B
:100E6000E9FA08BD0020FCE738020010F0B547465B
:100E7000984680B492B00C1C151C061C00216846D4
:100E80004822189FFFF736FF43461B6802940093E1
:100E90003B68039501931F4B0E931F4B0F93002C40
:100EA00035D0002D33D01D4C301C236805211B6824
:100EB0001B4A5B685D680023A847002803D012B076
:100EC00004BC9046F0BD2368301C1B6802215B689F
:100ED000144A5D680023A8470028F0D12368301C1D
:100EE0001B6869465B69104A5B6898470028E6D131
:100EF0003B68019A93420AD9414609689B1A8C467D
:100F0000414663440B60094B3A601870D7E70120F3
:100F10004042D4E7510D0000550D0000F81FFF1F9F
:100F2000710D0000B90D00001C010010100100102F
:100F300010B582B06B46DA1D00231370094B822175
:100F40001B681B681B681C6D0123A0470122064B10
:100F500006481A70FFF710FB0548FFF70DFB00204D
:100F600002B010BDF81FFF1F100100102802001072
:100F7000380200100022024B00201A707047C04651
:100F80002001001008B5ED23C35C002B04D1012221
:100F90000020044B1A7008BDFFF7CAFF0028F6D0E6
:100FA000F9E7C04620010010014B1878C0B2704725
:100FB0002001001080224E494E488B58F0B5034363
:100FC0008B501F214C4B0720DA689BB08A43DA60B4
:100FD0000122D96800241143D9609969474D8143A2
:100FE00099619969464E0A439A6106E0325D630051
:100FF000EB189A7100220134DA71301CFFF79CFE65
:101000008442F3D300243F4E08E0231C1033325DAA
:101010005B00EB189A7100220134DA71301CFFF783
:101020008BFE8442F1D3384B38480093384B394912
:101030000193394A394BFFF72FFE1F240020221C51
:10104000231C3A32AA181C3311785B00EB189970F4
:101050000021013CD9701070002CF0D18026304B5B
:1010600009AD1F6836014422281C03960297FFF73A
:1010700041FE2C4B04A9099305230A1C2B732A4B10
:101080006F602B61294BAE602B63294BC1CBC1C272
:1010900041CB41C2274F284E3B68301C1B682A1C9D
:1010A0001B685B689847002801D01BB0F0BD03990E
:1010B000029B8C46AA68214963449B1A03920A1C2E
:1010C000029303AB00931E32306802ABFFF7CEFEF3
:1010D0000028EAD180221A4BD2031A603B6830689C
:1010E0001B6801211B689B689847201CDDE7C046F0
:1010F000008004400040000800400440AC010010A3
:101100006832000078320000FBFF0000E6010010AA
:10111000FAFF000084320000FDFF0000FCFF000029
:101120004802001000000840750F0000850F000005
:1011300054320000F81FFF1FA40100100932000004
:1011400000E100E008B5044B044A1B6810681B6806
:101150001B68DB68984708BDF81FFF1FA40100103B
:10116000002243088B4274D303098B425FD3030AE6
:101170008B4244D3030B8B4228D3030C8B420DD3F9
:10118000FF22090212BA030C8B4202D31212090287
:1011900065D0030B8B4219D300E0090AC30B8B42C5
:1011A00001D3CB03C01A5241830B8B4201D38B0373
:1011B000C01A5241430B8B4201D34B03C01A524118
:1011C000030B8B4201D30B03C01A5241C30A8B425B
:1011D00001D3CB02C01A5241830A8B4201D38B0246
:1011E000C01A5241430A8B4201D34B02C01A5241EA
:1011F000030A8B4201D30B02C01A5241CDD2C3095C
:101200008B4201D3CB01C01A524183098B4201D3D7
:101210008B01C01A524143098B4201D34B01C01AC2
:10122000524103098B4201D30B01C01A5241C3083A
:101230008B4201D3CB00C01A524183088B4201D3A9
:101240008B00C01A524143088B4201D34B00C01A95
:101250005241411A00D20146524110467047FFE701
:1012600001B5002000F0FCF802BDC0460029F7D00F
:1012700003B5FFF775FF0EBC4243891A1847C046F5
:1012800003460B437FD4002243088B4274D30309E7
:101290008B425FD3030A8B4244D3030B8B4228D388
:1012A000030C8B420DD3FF22090212BA030C8B42AE
:1012B00002D31212090265D0030B8B4219D300E04E
:1012C000090AC30B8B4201D3CB03C01A5241830BD3
:1012D0008B4201D38B03C01A5241430B8B4201D383
:1012E0004B03C01A5241030B8B4201D30B03C01AAC
:1012F0005241C30A8B4201D3CB02C01A5241830A26
:101300008B4201D38B02C01A5241430A8B4201D354
:101310004B02C01A5241030A8B4201D30B02C01A7E
:101320005241CDD2C3098B4201D3CB01C01A5241E5
:1013300083098B4201D38B01C01A524143098B426E
:1013400001D34B01C01A524103098B4201D30B0157
:10135000C01A5241C3088B4201D3CB00C01A52417C
:1013600083088B4201D38B00C01A524143088B4241
:1013700001D34B00C01A5241411A00D201465241DA
:10138000104670475DE0CA0F00D04942031000D3F9
:101390004042534000229C4603098B422DD3030A4E
:1013A0008B4212D3FC22890112BA030A8B420CD35E
:1013B000890192118B4208D3890192118B4204D387
:1013C00089013AD0921100E08909C3098B4201D307
:1013D000CB01C01A524183098B4201D38B01C01A41
:1013E000524143098B4201D34B01C01A52410309B8
:1013F0008B4201D30B01C01A5241C3088B4201D367
:10140000CB00C01A524183088B4201D38B00C01A13
:101410005241D9D243088B4201D34B00C01A5241EA
:10142000411A00D20146634652415B10104601D377
:101430004042002B00D54942704763465B1000D301
:10144000404201B5002000F00BF802BD0029F8D0A1
:1014500003B5FFF715FF0EBC4243891A1847C04673
:101460007047C0468446101C62468C46191C634671
:1014700000E0C0461FB500F033FF002801D4002172
:10148000C8421FBD10B500F077FE4042013010BDCC
:1014900010B500F025FF002801DB002010BD012061
:1014A00010BDC04610B500F01BFF002801DD002074
:1014B00010BD012010BDC04610B500F0A1FE0028EF
:1014C00001DC002010BD012010BDC04610B500F0A9
:1014D00097FE002801DA002010BD012010BDC04693
:1014E000F0B5454657464E4694464C000A03C90F90
:1014F000E0B488460E1C1903470FC500480A614630
:10150000490F01436046520A1743C0005A00640D58
:10151000520DDB0F8446984500D1A7E0A01A0028A1
:1015200000DC01E1002A3DD163460B4300D0D4E04A
:101530006B0700D188E00F232B40042B00D183E000
:101540002A1DAA42AD4180236D427F191B043B40F6
:101550004646151C002B00D17CE0CC4B01349C424C
:1015600000D1FDE03A1CCA4BED081A405007640553
:1015700052020543120B640D002112030B0D1B05D3
:101580006405120B1A436308C24CF60714401C434F
:10159000640064083443281C211C1CBC90469946F6
:1015A000A246F0BDB94B9C42C2D080231B04194314
:1015B000382800DDECE01F2800DD21E120220E1C90
:1015C0006346121A9640C340334366469640321C27
:1015D000561EB24113430A1CC240EB1A9D42B6414B
:1015E0001D1CBA1A7642971B3B0200D497E07A0280
:1015F000560A002E00D1B6E0301C01F05DFD031C40
:10160000083B1F2B00DDB7E09E40371C28262A1C14
:10161000361AF240161C9D403E439C4200DDB2E06B
:101620001C1B621C1F2A00DDD8E01F23291C1C1B69
:10163000331CA540A340D1406C1EA541D6401943A0
:101640000D43371C002473E780231B043B404646B0
:1016500000D082E78D4BED0878070543FA089C42DD
:1016600032D012036405120B640D85E7A31A002B18
:1016700000DC94E0002A3CD0844A944200D157E731
:10168000802212041143382B00DC05E16346194324
:10169000481E81410022C8B24019A8429B41051C46
:1016A000D2195B42D7183B0239D5784B01349C42A2
:1016B00000D14CE10120764A6B083A40284018439B
:1016C000D5070543570833E72B1C134348D0802325
:1016D0001B031A431203120B4EE70138002878D17E
:1016E0006346EE1AB5429B417A1A5B42D71A351C03
:1016F0007AE7021C0A4300D11AE7013B002B00D015
:10170000F2E04019A8429B41CA195B42D718051C58
:10171000C9E7131C334300D118E1171C351C46469A
:101720006B0700D007E795E700287AD1621C5205C5
:10173000520D012A00DCFBE06246AA1A9542B6412E
:101740009146781A7242861A320200D493E06246B9
:10175000551BAC458041CF1B40423E1A984648E796
:101760000022002508E7281C01F0A6FC2030031CFD
:10177000083B1F2B00DC47E7283885402E1C00253E
:101780009C4200DC4CE7424AE41A1640371CCFE684
:10179000634619434B1E99410022CBB21DE7002B33
:1017A00000D0F2E0601C43055B0D012B00DCA4E0DF
:1017B000364B984200D121E163465C19AC429B4113
:1017C000CF195B42FA186408D50725435708041C53
:1017D000AEE62E4B9C4200D0EAE6A9E6211C331C63
:1017E0001F39CB40191C202A00D182E03F231C1B4B
:1017F000A64035436E1EB54100270D4300248EE7F9
:10180000031C0E1C203BDE40202874D040231B1AF2
:1018100099400B1C62461343591E8B4100223343EF
:10182000DBE6002C50D0194CA24200D1A8E0802465
:10183000240440422743382800DDD9E01F2800DD7A
:1018400039E120243E1C241AA640B0462E1CA14695
:10185000C640444626434C46A5406C1EA541C740A1
:1018600035436046451BCF1BAC45894149427F1A31
:10187000141C9846B8E64B464D46334300D0B8E6B4
:101880000026002700240025E4E6C046FF070000EC
:10189000FFFF7FFFFFFF0F801F2B5BDC2022081C58
:1018A000D21A9040814660469246D8404A4610433C
:1018B0008146524660469040021C501E8241484676
:1018C00010430A1CDA40E7E63C1C2C4358D0C043C6
:1018D000002851D16046451BAC458041CF1B40429A
:1018E0003F1A141C98467FE68F4A944200D0CAE6FD
:1018F0001EE600267DE700238CE73B1C2B43002CD3
:1019000000D0BDE0002B00D1F5E063460B4300D1D1
:101910000EE663465B19AB428041CA194042171874
:101920003A0200D4FCE0814A1D1C17400134FFE557
:101930003A1C2A43002C51D1002A00D085E062468F
:101940000A4303D00F1C65469846F1E500260027A0
:1019500000257FE6181C0A1C2038C240202B00D12D
:10196000A7E04020C01A8140081C63461843411E6E
:101970008841104300228FE66B4CA24200D05AE708
:101980000F1C6546141C9846D2E5002C3AD1381C31
:10199000284371D0DB43002B18D0634882426BD0C0
:1019A000382B00DD9DE01F2B00DDA7E020203C1C34
:1019B000C01A8440A1462C1C8246DC4048460443A1
:1019C00050468540681E8541DF4025436544654596
:1019D0009B417F185B42FF18141C64E6002A19D152
:1019E00062460A4377D00F1C654698464E4C9FE5E9
:1019F0003D436F1EBD410027EDB232E7041C0027B6
:101A0000002527E64848824236D0802000045B4209
:101A10000743C5E762460A4349D08024ED087807AA
:101A2000FA0824032843224209D0CE08264206D1D0
:101A300062464F07381CD20810439846321CD20029
:101A4000470F1743C500384C72E562460A4300D180
:101A50006EE56246AE1AB5429241781A5242821A37
:101A6000100200D455E66246551BAC458041CA1BA6
:101A70004042171A98465BE50F1C6546141C57E553
:101A8000002B34D063460B4311D08024ED08780737
:101A9000FA08240328432242D1D0CB082342CED1D6
:101AA00062464F07381CD20810431A1CC7E71E4C69
:101AB0003EE5002059E7041C3E1C203CE640341C57
:101AC00020282BD04026301A87403D436F1EBD4151
:101AD00000272543C5E680270026FF03124C00257A
:101AE000B8E53D436F1EBD410027EDB26EE70F1C08
:101AF00065460D4C1CE50F1C654619E51C1C381C81
:101B0000203CE040041C202B0CD04020C31A9F40F6
:101B10003D436F1EBD410027254357E70027D4E70B
:101B20001D1CFCE50027F3E7FF070000FFFF7FFF18
:101B3000F0B55F4656464D464446F0B40F0387B0B5
:101B400098464D003B0BCC0F061C924681469B46A7
:101B50006D0D01946BD0664B9D4235D080275B465E
:101B60007F031F43F3009946624BFF00400F9C46E2
:101B700007430023BB4600266544009342461703F3
:101B80005000D20F53463F0B400D904600D172E0FB
:101B9000574A904267D080235B031F435346554A00
:101BA0005B0FFF001F43944653460021DB00604457
:101BB0004246624092462D1A0E430F2E00D9A1E0F4
:101BC0004D48B600805987465B461E4300D076E0FC
:101BD00000239B469946023308260093CEE7994698
:101BE0004346BB4601930091009B022B6BD1019BA6
:101BF0009A46002153460122002789461A403C4B51
:101C000000213F030C0D24053F0B27433B4C1B05D4
:101C100027401F437F00D2077F0817434846391CDF
:101C200007B03CBC90469946A246AB46F0BD034384
:101C30003ED05B46002B00D19CE1584601F03CFAB7
:101C40002823311C1B1A021C5F46D940083A9740D2
:101C50000B1C96403B439B46B1460023284D002673
:101C60002D1A00938AE7524603213A43A0D1002758
:101C7000002302219CE752463A4315D0002F00D1A1
:101C800085E1381C01F018FA021C28215046891AF7
:101C9000131CC8405146083B99409F400B1C07430A
:101CA00017480021801A83E70027002301217FE7DE
:101CB00000239B4699460133042600935EE70323E5
:101CC0000C2600935AE7032B00D13CE2012B00D0F5
:101CD000BFE11A1C019B1A400021002300278946FE
:101CE0008EE700238027994600223F03004B87E7B9
:101CF000FF07000001FCFFFF98320000FFFF0F808C
:101D00000DFCFFFFBB4500D951E100D14CE14A4633
:101D1000039200225C469046013D180E3F02384374
:101D20001B020193030C994603041B0C4946061C35
:101D3000201C1F1C0093FFF713FA021C7A43029029
:101D40004946201C171CFFF791FA039B09041B0C42
:101D500019438F420CD9029B8919013B8E4200D94D
:101D600052E18F4200D84FE1029B8919023B029356
:101D7000CC1B201C4946FFF7F3F9009F83464743DD
:101D80004946201CFFF772FA039A0B041404240C32
:101D900023439F420DD95A469B19013A9E4200D9CE
:101DA00030E19F4200D82DE10222524294469B1915
:101DB000E344029ADB1B17045A463A439346019CBC
:101DC000170C220C101C04925A4611042204120C07
:101DD000141C090C7C4305924A4341434743611854
:101DE000100C09188C4203D98020400284466744B5
:101DF0000C0C12040804120C3C198118A34200D2E6
:101E0000E5E000D1DFE01F1B43465C1AA04592418C
:101E10005242BF1AB74200D10EE1381C4946FFF7C3
:101E20009FF9009B029043434946381C9846FFF7B0
:101E30001DFA230C0F041F43B8450CD9029BBF1990
:101E4000013BBE4200D9FBE0B84500D8F8E0029B58
:101E5000BF19023B02934346FF1A4946381CFFF75D
:101E60007FF9009B039043434946381C9846FFF78F
:101E7000FDF924040904240C214388450CD9039B53
:101E80008919013B8E4200D9DCE0884500D8D9E0B1
:101E9000039B8919023B03934346C91A029B039A89
:101EA0001B04059C1A43100C13049146221C049F2A
:101EB0001B0C5A4344437B437843E318170CDB194C
:101EC0009C4203D980246402A44660441C0C120482
:101ED0001B04120C00199B18814200D296E000D11D
:101EE000FCE04A4601231A4391469B4BEB18002B1A
:101EF00000DC99E04A4652070AD00F2249460A40C0
:101F0000042A05D0043149459241894652429344FE
:101F10005A46D20106D55A46904B1A408023934622
:101F2000DB00EB188E4A934200DD62E64A465946D2
:101F3000D208490711435A468946570251460122A1
:101F40005B053F0B5B0D0A405AE680205A460003B2
:101F5000024208D0074206D107433F0399463F0B90
:101F60004246804B4CE65F4607433F033F0B221C33
:101F70007C4B45E601F0A0F8031C2030272800DC4C
:101F80005EE6083B9E400023B346994665E6504610
:101F900001F092F8021C2032272A00DC75E6574631
:101FA0000838874000237BE6994500D2AFE65A46C1
:101FB000594654084A46C8075208024303924A4603
:101FC000D2079046A9E60027884500D31CE7019F69
:101FD0005A46BC46E044B845BF417F42BF19FF188E
:101FE000013ABE4206D2BC425FD800D19FE03F1BFF
:101FF000934609E7B742FAD1019B4345F3D9371B12
:10200000934601E79346D4E60293B1E64A4689191E
:10201000013A8E4218D99146814200D061E7019A77
:102020009A4200D05DE760E74F4F7F1B382F13DDEA
:10203000012253461A404FE601235B42994654E77A
:10204000029308E7039327E788423CD874D091466F
:1020500047E7019B9A4648E71F2F44DC434B4A461B
:102060009C465B466544FA40AB4013434A46AA404F
:10207000151C6A1E95415A46FA402B43171C5A07F5
:1020800009D00F221A40042A05D01A1D9A429B41FA
:102090005B42FF18131C3A023ED553460122002131
:1020A0001A40002701238946AAE502235B429C4689
:1020B000019AE3449446E04490459B415B429B195E
:1020C000DF193F1BA0E6019F4A467C00BC42BF418E
:1020D0007F42BF19023AC91901949CE7002B95D1A0
:1020E000002201929BE75A46214B5B1BDA40202FCE
:1020F00027D0204B9C465B466544AB4049460B438A
:10210000591E8B411343072200271A4007D00F2284
:1021100000271A40042AB8D17A077F023F0BDB0858
:1021200013439946012253461A40002368E541456E
:10213000BBD89346002767E6019C9C42C3D39146D7
:102140006DE70023DAE780275B463F031F433F0329
:102150003F0B019A034B53E5FF030000FFFFFFFE17
:10216000FE070000FF07000002FCFFFF1E04000046
:10217000E2FBFFFF3E040000F0B55F464D464446DB
:102180005646F0B41F035C00DB0F99461B4B0E0351
:102190004D00C90F8446360B6D0D8B4690463F0BA4
:1021A000640D9D420CD0154B9C4210D00123A542DA
:1021B00014D0181C3CBC90469946A246AB46F0BDD4
:1021C000311C01230143F4D10C4B9C42EED13A4324
:1021D0000123002AEDD10123A542EAD1BE42E8D174
:1021E000C445E6D1CB4506D0002DE2D13043031CD7
:1021F000581E8341DDE70023DBE7C046FF070000F0
:10220000F0B5574645464E46E0B40F034E00C90FA1
:102210008A4632491D035C0084463F0B760D90468A
:102220002D0B640DDB0F8E420FD08C4239D0002E67
:1022300010D13843414241418946002C27D12A43DD
:1022400025D1002000290ED108E0391C01432ED1F0
:10225000B44226D0002C0BD09A450DD0534659429B
:1022600001231943081C1CBC90469946A246F0BDA8
:102270002A43F3D09A45F1D1A642EFDC1ADA504650
:1022800041424841012341421943081CEBE74A46B9
:10229000002AE1D058425841012241421143081C12
:1022A000E1E7291C114302D1002EC2D0D4E702205D
:1022B0004042D8E7AF42D1D809D00020AF42D2D2B5
:1022C000504641424841012340421843CBE7C445B0
:1022D000C4D80020C445F3D3C5E7C046FF070000BB
:1022E000F0B55F464D46444656468046F0B4061C5F
:1022F0000803000B84462C484C001F035D00C90FE7
:10230000640D8B4691463F0B6D0DDB0F844212D05E
:10231000854225D0002C14D161460E4370424641BF
:10232000002D35D0002E21D0584258410121434282
:102330000B43181C0EE06146022031430AD1A5422E
:102340000ED0002D12D13A4310D15B4659420123E1
:102350001943081C3CBC90469946A246AB46F0BDCA
:10236000391C02201143F5D1002CD5D09B45ECD16E
:10237000AC42EADC05DBBC45E7D80FD00020BC4509
:10238000E8D2584641424841414201200843E1E732
:102390003A43C7D10020002EDCD1D6E7C845D4D8B7
:1023A0000020C845EDD3D5E7FF070000F0B55F4634
:1023B00056464D464446F0B4051C061C080387B03B
:1023C00099464F00030BCC0F92469B467F0D01941C
:1023D00067D06C4B9F4236D080205B464003184349
:1023E000C0006B0F1843684B83469C4600239846F9
:1023F000EE00674400934B4649461D03C90F5B003E
:1024000052462D0B5B0D894600D16EE05D498B4233
:1024100064D080205C4940038C4600210543ED00D8
:10242000500F0543D20063444846FF187B1C9A4670
:10243000009B604002900B430F2B00D9ACE0534847
:102440009B00C3589F465B461D4300D082E0082393
:10245000009300239B46023300269846CBE7029B5D
:1024600001934346022B59D1012400250026019BEC
:102470001C40444B00212D030A0D12052D0B154362
:10248000434A1B0515401D436D00E4076D082543B5
:10249000301C291C07B03CBC90469946A246AB466E
:1024A000F0BD2B434ED05B46002B00D185E1584652
:1024B00000F002FE021C2823291C9B1A161C5846F9
:1024C000D940083EB0400B1CB54003439B462E1C30
:1024D0000023304F0093BF1A98468CE7514629439A
:1024E0002ED10025002202219EE75146294323D008
:1024F000002D00D154E1281C00F0DEFD031C282132
:102500005046C91A1A1CC8405146083A9140954095
:102510000A1C05431F480021C31A85E7032B00D17D
:10252000C2E1012B00D06DE14446019B00251C4017
:10253000E4B2002300269DE700250022012173E775
:10254000032171E70423009300239B4601330026F7
:10255000984650E70C230093093B98464BE78025AB
:1025600000242D030026074B84E74B46AB46161C80
:102570000193884675E7029BAB46161C019388467B
:102580006FE7C046FF07000001FCFFFFD8320000E4
:10259000FFFF0F800DFCFFFF330C3604360C9C460A
:1025A000331C140C1204120C5343984663465343D5
:1025B0009946634663430193331C41466343090CC8
:1025C0004B445B18994505D980204002814601990A
:1025D00049440191190C039141460904090C1B045B
:1025E0005B1804932B0C9846331C2D04290C4B4389
:1025F000604600934346654658435E43009B4D4307
:102600001B0C9946AE194E448446B54203D980232B
:102610005B029946CC44350C2B1C039863448446DA
:102620000593009B36041B041B0CF3189C44604666
:10263000039058460504060C280C84465043351C6C
:1026400081466046654344434846000C83467243D6
:1026500014195C44A24203D98022520293465D447D
:10266000220CAD184A461204120C24044046A41849
:1026700062464A437143464360460096464670436D
:102680008046100C84468844E044414505D98021A9
:1026900049028C460099614400910198039984464F
:1026A000614499429B415B42994605984346844662
:1026B0001204120C1B049B1863449C46AB468342D5
:1026C0009B4140460A19CC44A2428941E344CC458F
:1026D000B6415C46000C8046494276425B42641833
:1026E000334398448C428941AB459B4149425B420C
:1026F00019430D1C009B4544EE187602E50D2E4350
:10270000B346049B56021E43731E9E415B46D20D88
:10271000324366021643DB010AD5012333407608B3
:102720001E435B46DB071E435B465B089B465746E2
:10273000634BFB18002B5ADD720709D00F22324081
:10274000042A05D0321DB242B6417642B344161C6B
:102750005A46D20106D55A465A4B1A408023934610
:10276000DB00FB18584A934234DD0124029B00250C
:102770001C400026554B7DE680205B46000303424B
:1027800008D0054206D105432D032D0B4C46161CDF
:102790004E4B6FE65D4605432D032D0B4B4B69E613
:1027A000504600F089FC031C2033272B00DCA6E6F2
:1027B0005546083885400022ACE6281C00F07CFC19
:1027C000021C2032272A00DC75E6083885400026E6
:1027D000AB467DE65A46F608520716435A46012490
:1027E0005502029A5B052D0B5B0D144042E6384DF5
:1027F000ED1B382D0ADD0124029B00251C4000261C
:10280000002337E6019B5746029391E71F2D25DCF5
:10281000304B321C9C466744BE405B46BB40371C75
:10282000EA407E1EB74113433B431E1C5B46EB4010
:102830001D1C730709D00F233340042B05D0331D13
:10284000B342B6417642AD191E1C2B0220D501249D
:10285000029B00251C40002601230BE65A461E4B16
:10286000DB1BDA40131C202D1CD01C4A94465A4610
:102870006744BA40171C3E43721E96411E4307230D
:102880000025334007D00F2300253340042BD6D139
:102890006B076D022D0B0124F6081E43029B1C40A2
:1028A0000023E7E50027E6E780255B4601242D03AA
:1028B0001D43019B2D0323401C1C2D0B034BD9E50D
:1028C000FF030000FFFFFFFEFE070000FF07000000
:1028D00002FCFFFF1E040000E2FBFFFF3E040000BD
:1028E000F0B54D4644465F465646F0B40E1C111CEA
:1028F0003203520A470F1743C5001A035800DB0F73
:102900009946520A4B0F83B01A43CB000193CF4B29
:102910007400F60F640DB046400D984200D1E8E017
:102920000123494659400B1C9E4200D1B1E0261AB2
:10293000002E00DC1CE1002842D1131C01990B433E
:1029400000D0E6E06B0700D18EE00F232B40042B74
:1029500000D189E02A1DAA42AD41802301264146CB
:102960006D427F191B043B400E40151C002B00D10B
:1029700083E0B64B01349C4200D116E13A1CB44BC3
:10298000ED081A405007640552020543120B640D0E
:10299000002112030B0D1B056405120B1A4363087B
:1029A000AC4CF60714401C43640064083443281CF4
:1029B000211C03B03CBC90469946A246AB46F0BDF4
:1029C000A24B9C42BED080231B041A43382E00DD4C
:1029D00003E11F2E00DD3FE12020831B9946131CDD
:1029E00049468B409C46019B6046F3400343019857
:1029F000F2408840011C481E81410B43EB1A9D4266
:102A000080411D1CBA1A4042171A3B0200D4A8E0AC
:102A10007A02560A002E00D1CAE0301C00F04CFBAE
:102A2000031C083B1F2B00DDCBE02822291C121AB7
:102A3000D1409E400A1C9D4032439C4200DDC8E0CC
:102A40001C1B671C1F2F00DDEDE01F23291C1C1B16
:102A5000131CA540A340F9406C1EA541FA40194340
:102A60000D43171C00246DE78023012642461B04FA
:102A70003B401640002B00D07BE7744BED087807F5
:102A80000543FA089C423BD012036405120B640D07
:102A90007EE7231A9A46002B00DCA5E0002844D0EC
:102AA0006A48844200D14DE7802000040243534627
:102AB000382B00DC1CE1019B1A43511E8A41D1B224
:102AC00000224919A94280410D1CD2194042171811
:102AD0003B0246D55D4B01349C4200D169E10120A7
:102AE0005B4A6B083A4028401843D507054357080E
:102AF00028E7131C01990B4300D111E74B4613E75C
:102B00002B1C134351D080231B031A431203120BB7
:102B10003EE7013E002E00D080E0691A8D429B41C5
:102B2000BA1A5B42D71A0D1C6FE7101C019B1843A1
:102B300000D107E701235B429C46E2445346002B49
:102B400000D002E1019BD2195919A9429B415B4275
:102B5000D7180D1CBCE76346034300D128E1071CCE
:102B600065466B0700D0F0E6012643461E4084E729
:102B7000002E00D081E0601C4005400D012800DCE3
:102B800007E10199681A84466545B641B81A76424C
:102B9000861B300200D4A1E08C464D1BAC45894118
:102BA000D21B4942561A984634E700220025EFE628
:102BB000281C00F081FA2030031C083B1F2B00DC8E
:102BC00033E7021C283A95402A1C00259C4200DC71
:102BD00036E71F4FE41A1740B4E6019B1A43511E13
:102BE0008A41D3B2002209E7002B00D001E1601C2A
:102BF00043055B0D012B00DCB0E0144B984200D183
:102C00001EE1019BD2195919A9429B415B42D2187E
:102C10004908D5070D435708041C93E60B4B9C420B
:102C200000D0D3E68EE6211C131C1F39CB40191CA3
:102C3000202F00D18EE03F231C1BA24015436A1EAB
:102C4000954100270D4300248BE7C046FF07000095
:102C5000FFFF7FFFFFFF0F80331C101C203BD8407D
:102C6000202E79D040239B1B9A40131C019A1343BA
:102C7000591E8B4100220343C0E6002C53D0C74CA1
:102C8000A04200D1B0E08024714289462404274349
:102C90004946382900DDCDE01F2900DD59E1202417
:102CA0003E1C611A8E408A46B04649462E1CCE40D4
:102CB0005146B4468D4064464646494626436C1EFE
:102CC000A541CF4035430199D71B8C464D1BAC45E0
:102CD00092415242BF1A041C984696E663466546E6
:102CE000334300D096E60026002700240025C4E6E2
:102CF0001F2B61DC2020C31A9B46131C59468B40B6
:102D000051469946019BCB409C464B466046034347
:102D10009C465B46019999406346481E8141194390
:102D20005346DA40CDE63C1C2C435DD0F143894646
:102D3000002955D10199D21B8C464D1BAC458941C8
:102D40004942571A041C98465FE69448844200D0D2
:102D5000ADE6F7E5002271E7002387E73B1C2B4334
:102D6000002C00D0DAE0002B00D113E1131C0199F4
:102D70000B4300D1E6E54919A9429B41D2195B42B8
:102D8000D7183B0200D421E1854B0D1C1F40041CC9
:102D9000D8E5381C2843002C40D1002800D083E01F
:102DA000101C0199084303D0171C0D1C9846C9E557
:102DB00000260027002560E65046131C2038C3403B
:102DC000181C5346202B00D1C1E0402351465B1A0A
:102DD0009A40019911434A1E91410022014370E635
:102DE0006E4CA04200D053E7171C019D041C98466E
:102DF000A8E5002C28D13C1C2C4300D18AE0DB4301
:102E00009A46002B00D082E0019BD2199C46654473
:102E10009D42894149425718041C59E600285BD15C
:102E2000101C0199084300D1A4E0171C0D1C984602
:102E30005A4C87E53D436F1EBD410027EDB242E786
:102E4000041C0027002518E6544CA04262D05346CB
:102E500080245B429A46240427435346382B00DDE6
:102E60008EE01F2B00DD9DE02024E31A9B463B1CD7
:102E700059468B40514699462B1CCB409C464B46AD
:102E8000644623439C465B469D4063466C1EA541B9
:102E9000CF401D43019BBF189C4665449D42924113
:102EA0005242BF18041C13E6101C0199084300D1BC
:102EB00048E5681A844685428041BE1A4042301A6D
:102EC000060200D447E68C464D1BAC458941D21B17
:102ED0004942571A984635E5101C0199084334D0E9
:102EE00080247807ED08FF0824032843274208D0F0
:102EF000D608264205D1C90852070A43101C371CC0
:102F00009846FF00420F1743C500244C1AE5234C96
:102F1000A042A2D1171C019D041C13E5002B35D043
:102F2000131C01990B4310D080247807ED08FF088B
:102F3000240328432742E4D0D3082342E1D1C9081F
:102F400052070A43101C1F1CDBE7144CFAE4002252
:102F50003FE74C463E1C203CE6404946341C2029B5
:102F600032D04026761AB7403D436F1EBD41002740
:102F70002543A8E680270026FF03084C00257CE5B2
:102F80003D436F1EBD410027EDB283E7171C019D35
:102F9000024CD7E4171C019DD4E4C046FF07000093
:102FA000FFFF7FFF54463B1C203CE3401C1C534664
:102FB000202B0DD0402351465B1A9F403D436F1E8E
:102FC000BD410027254365E70027CDE70D1CC8E577
:102FD0000027F3E70B0330B5134C1A0B4B00051C0D
:102FE0005B0DC90F0020A34210DD104883420EDCA8
:102FF00080200F4C40030243E41A1F2C0ADD0D48C9
:10300000C31ADA40131C48424340581830BD0A4BDB
:10301000C818FBE7281CE040084CA44663449A40CB
:10302000131C0343EFE7C046FE0300001D0400002D
:103030003304000013040000FFFFFF7FEDFBFFFFE0
:1030400038B5041E16D0C50F00D04442201C00F035
:1030500033F8174B1B1A0A2821DC021C211C1532DD
:1030600091400A1C0B21081AC4405B052403240B61
:103070005B0D03E000250023002400220021101C2A
:1030800024030A0D1205240B14430A4A1B0514409D
:103090001C436400ED0764082C43211C38BD0B3829
:1030A00084405B052403240B5B0D0022E6E7C04649
:1030B0001E040000FFFF0F801C2101231B04984207
:1030C00001D3000C10391B0A984201D3000A0839B9
:1030D0001B09984201D30009043902A2105C401870
:1030E0007047C04604030202010101010000000014
:1030F0000000000020A1070000350C00E0C810000F
:10310000C05C1500006A180040771B0080841E0018
:10311000C0912100009F240040AC2700E03229002C
:1031200020402C00604D2F0000D4300040E13300DF
:103130005C0C0000880C0000880C0000880C00006B
:10314000880C0000880C0000880C0000880C00002F
:10315000880C0000880C0000880C0000880C00001F
:10316000880C0000880C0000880C0000880C00000F
:10317000880C0000880C0000880C0000400C000047
:10318000880C0000880C0000880C0000880C0000EF
:10319000880C0000880C0000880C0000880C0000DF
:1031A000880C0000880C00002E0C0000160C00009B
:1031B000F40B0000D20B0000880C0000880C00000B
:1031C000160C0000880C0000880C0000880C000021
:1031D000880C0000880C0000880C0000880C00009F
:1031E000880C0000880C00008C0B0000880C00008C
:1031F000740B0000880C0000880C0000520B0000CB
:1032000009023E0002010080FA09040000010202E6
:103210000100052400200104240206052406000103
:10322000070581030800FF09040100020A000000ED
:1032300007050102100000070582021000000000CF
:103240001201000202000040C91F0120000101021A
:103250000301000040320000AC0100100032000009
:1032600000320000000000006D6963726F427569F2
:103270006C6465722E65750052463147485A555345
:10328000420000002530385825303858253038584D
:103290002530385800000000041D0000F21B00001B
:1032A000D81C0000DE1B0000D81C0000E21C00003F
:1032B000D81C0000DE1B0000F21B0000F21B000007
:1032C000E21C0000DE1B0000E81B0000E81B000001
:1032D000E81B00004A1F000098250000762500002A
:1032E000762500006A2500005E2400005E240000B0
:1032F0005E2500006A2500005E2400005E250000B7
:103300005E2400006A2500006224000062240000A0
:08331000622400007827000090
:10331800006CDC0204030904200300000000000024
:103328000000000000000000000000000000000095
:10333800000000000000000014030000000000006E
:103348000000000000000000000000004203000030
:103358000000000000000000000000000000000065
:103368000000000000000000000000000000000055
:103378000000000000000000000000000000000045
:103388000000000000000000000000000000000035
:103398002401001040000100000000000000001699
:1033A8006401001040000100000000000000011648
:0433B80000480020A9
:04000003000000D920
:00000001FF
