:1000000000800010C1000000E1000000ED000000D1
:1000100000000000000000000000000000000000E0
:10002000000000000000000000000000F9000000D7
:1000300000000000000000000501000011010000A8
:100040001D010000290100003501000041010000F0
:100050004D01000059010000650100007101000020
:100060007D01000089010000000000000000000088
:10007000000000000000000095010000A101000048
:10008000AD010000B9010000C5010000D101000070
:10009000DD010000E9010000AD0C000001020000DC
:1000A0000D020000190200002502000031020000CC
:1000B00000000000000000003D0200000000000001
:1000C00080B500AF0549054A8023D358C0221205E8
:1000D000134380228B5000F039FBFEE70080044080
:1000E00080B500AF00F032FBFEE7C04680B500AF40
:1000F00000F02CFBFEE7C04680B500AF00F026FB09
:10010000FEE7C04680B500AF00F020FBFEE7C0462A
:1001100080B500AF00F01AFBFEE7C04680B500AF27
:1001200000F014FBFEE7C04680B500AF00F00EFB08
:10013000FEE7C04680B500AF00F008FBFEE7C04612
:1001400080B500AF00F002FBFEE7C04680B500AF0F
:1001500000F0FCFAFEE7C04680B500AF00F0F6FA0A
:10016000FEE7C04680B500AF00F0F0FAFEE7C046FB
:1001700080B500AF00F0EAFAFEE7C04680B500AFF8
:1001800000F0E4FAFEE7C04680B500AF00F0DEFA0A
:10019000FEE7C04680B500AF00F0D8FAFEE7C046E3
:1001A00080B500AF00F0D2FAFEE7C04680B500AFE0
:1001B00000F0CCFAFEE7C04680B500AF00F0C6FA0A
:1001C000FEE7C04680B500AF00F0C0FAFEE7C046CB
:1001D00080B500AF00F0BAFAFEE7C04680B500AFC8
:1001E00000F0B4FAFEE7C04680B500AF00F0AEFA0A
:1001F000FEE7C04680B500AF00F0A8FAFEE7C046B3
:1002000080B500AF00F0A2FAFEE7C04680B500AFAF
:1002100000F09CFAFEE7C04680B500AF00F096FA09
:10022000FEE7C04680B500AF00F090FAFEE7C0469A
:1002300080B500AF00F08AFAFEE7C04680B500AF97
:1002400000F084FAFEE7C04680B500AF024B034AD7
:100250001A60BD4680BDC04600000010006CDC0284
:1002600080B582B000AF021CFB1D1A700749074A17
:100270008023D358FA1D127801209040021C1343AA
:1002800080228B50BD4602B080BDC0460080044035
:1002900080B582B000AF202000F038F800237B60EA
:1002A00002E07B6801337B607B68104A9342F8DD93
:1002B000012000F04DF8012000F060F8802000F0EF
:1002C00073F80320012100F08FF8802000F01EF861
:1002D000C04600F00DF8031EFBD0012000F09EF890
:1002E000032000F0A7F8BD4602B080BDC30900009E
:1002F00080B500AF044BDB68012213405A1E9341C6
:10030000DBB2181CBD4680BD0080044080B584B0BF
:1003100000AF78600C4A8E239B00D3580B4A1340E1
:10032000FB607B68094A1340DA43FB681340FB60BB
:100330000549FB68C82212021A438E239B00CA504B
:10034000BD4604B080BDC04600800440FF250000CB
:1003500080B582B000AF021CFB1D1A70064BFA1D5F
:1003600012781A64044B00225A64034B01225A6427
:10037000BD4602B080BDC0460080044080B584B058
:1003800000AF021CFB1D1A70064B1B69032293432E
:10039000FB60044BFA1D1178FA680A431A61BD46E6
:1003A00004B080BD00C0034080B584B000AF786069
:1003B0000B4A8E239B00D3580A4A1340FB607B688C
:1003C000084A1340FA681343FB600549FB68C822DA
:1003D00012021A438E239B00CA50BD4604B080BD52
:1003E00000800440FF25000080B582B000AF021CF1
:1003F000FB1D1A70BB1D0A1C1A70074BFA1D1278E0
:100400001F211140BA1D12780320024052010A43F5
:100410009A60BD4602B080BD0080044080B582B0C5
:1004200000AF7860024B7A689A67BD4602B080BD23
:100430000080044080B582B000AF021CFB1D1A7022
:10044000064BFA1D12781A67044B00225A67034BB9
:1004500001225A67BD4602B080BDC04600800440FC
:1004600080B500AF0949094A8023D358802252023F
:10047000134380228B500549044A8023D3584022DD
:10048000134380228B50BD4680BDC046008004408F
:10049000B0B586B000AFF860B9607A6000237B61C8
:1004A00018E07B699B00BA68D31819787B699B00B8
:1004B000BA68D3185C787B699B00BA68D3185B88EC
:1004C0001D1CFB68181C221C2B1C00F00BF87B6900
:1004D00001337B617A697B689A42E2D3BD4606B0FC
:1004E000B0BDC04680B584B000AFF860081C111CD8
:1004F0007B600B23FB18021C1A700A23FB180A1CD2
:100500001A700B23FB181B78012B0CD0022B13D075
:10051000002B00D029E00A23FB181A78FB68920010
:100520007968D15021E00A23FB181A78FB68183249
:1005300092007968D15018E00A23FB181B78012B30
:100540000AD90A23FB181B78023BFA683E339B004A
:10055000D3187A685A6007E00A23FB181A78FB68F8
:100560003C3292007968D150C046BD4604B080BD8F
:1005700080B500AF054B181C00F00CF8044B044A82
:10058000126901210A431A61BD4680BD8096980018
:1005900000E000E080B582B000AF7860024B7A687E
:1005A0005A61BD4602B080BD00E000E080B500AFFA
:1005B000012000F01FF80320012100F031F8802312
:1005C0005B00181C00F046F8C04600F065F8031EFA
:1005D000FBD00020012100F06DF80E20FFF740FE57
:1005E0001B20FFF73DFE8023DB00181C00F032F8D3
:1005F000BD4680BD80B582B000AF021CFB1D1A70E5
:10060000064BFA1D12789A64044B0022DA64034BFD
:100610000122DA64BD4602B080BDC04600800440BD
:1006200080B582B000AF021CFB1D1A70BB1D0A1CF6
:100630001A70074BFA1D12781F211140BA1D12784B
:100640000320024052010A431A61BD4602B080BD38
:100650000080044080B584B000AF78600C4A8E23DF
:100660009B00D3580B4A1340FB607B68094A134038
:10067000DA43FB681340FB600549FB68C82212029D
:100680001A438E239B00CA50BD4604B080BDC046AD
:1006900000800440FF25000080B500AF044B5B697B
:1006A000012213405A1E9341DBB2181CBD4680BD87
:1006B0000080044080B582B000AF021C3960FB1D91
:1006C0001A700A49FB1D1B78C0228B50074AC423AD
:1006D0000021D150054AC4230121D1500349C82229
:1006E0003B688B50BD4602B080BDC04600800440D0
:1006F00080B582B000AF021CFB1D1A70064BFA1DBC
:100700001278111C1F220A40012191400A1C1A6014
:10071000BD4602B080BDC04600E100E080B582B0B9
:1007200000AF021CFB1D1A70074AFB1D1B78191C29
:100730001F230B40012199400B1C191C8023D15011
:10074000BD4602B080BDC04600E100E080B59AB071
:1007500000AF00F077FA00233B6600237B66434B33
:100760001B681A68424B1A601823FB18181C0021DA
:10077000442200F033FB1823FB183E4A1A6018236A
:10078000FB1804221A731823FB183B4A5A601823DB
:10079000FB18802212019A603B1D384A1A603B1DEB
:1007A000374A5A603B1D374ADA603B1D354A9A602A
:1007B0003B1D00221A612D4B1B681B681B685B6880
:1007C0003148391D1822BA189847031C3B663B6E06
:1007D000002B23D11823FB189B682C4AD21A18230C
:1007E000FB185A60284B19683A1D1823FB18081C7F
:1007F000111C1A1C00F050F8031C3B663B6E002BCA
:100800000CD11620FFF774FF184B1B681B681B6880
:100810009A681D4B1B68181C0121904700F074F961
:10082000031E0AD07B6E002B07D1194B181C102118
:1008300000F078F97B6E01337B667B6E002B13D062
:100840000023FB65134A80235B00101C191C00F079
:10085000A7F9031CFB65FB6D002B05D00D4AFB6D52
:10086000101C191C00F05EF9D8E7C046F81FFF1FE6
:100870001C0000100000084000400020680E00002E
:10088000400F00007C0E0000040000100048002013
:10089000300F00002000001090B599B000AFF86054
:1008A000B9607A600023FB653F4BFA681A60102339
:1008B000FB18181C0021482200F090FA7B685A6847
:1008C0001023FB181A607B689A681023FB185A6083
:1008D000BB68DB68181C022100F016FA021C10230A
:1008E000FB189A60BB68DB68181C0A2100F00CFA40
:1008F000021C1023FB18DA601023FB182B4ADA6362
:100900002B4B1B681B685B695B68F8681022B91881
:10091000284A9847031CFB65FB6D002B3FD1102331
:10092000FB181B681A1C204B9A601023FB181B68CD
:10093000802292009A181023FB181A601023FB18CB
:100940005B681D4A9A181023FB185A600323BB6585
:10095000174B1B681B685B685C68F868B96D174AC1
:10096000114BA047031CFB65FB6D002B0DD102232F
:10097000BB650F4B1B681B685B685C68F868B96DEA
:100980000F4A094BA047031CFB651023FB181A688C
:100990007B685A601023FB185A687B689A60FB6D6D
:1009A000181CBD4619B090BD08000010C509000014
:1009B000F81FFF1F0C00001000FEFFFFE9090000F8
:1009C000190A000080B584B000AF78603960054B2B
:1009D000FB60FB68802252001A820023181CBD466F
:1009E00004B080BD0800001080B586B000AFF8608C
:1009F000B9607A60BB687B617B68032B07D17B6938
:100A00001B8A9BB2012293439AB27B691A8200230C
:100A1000181CBD4606B080BD90B587B000AFF86029
:100A2000B9607A60BB687B617B68022B02D0042BC3
:100A300045D062E0334B1B681B681B685C6C7B69AC
:100A40009B68FA68101C01211A1CA047031C9AB26B
:100A50007B69DA817B695B8A9BB21A1C0423134091
:100A600014D07B695B8A9BB2042293439AB27B6960
:100A70005A827B69DB89002B20D07B695B8A9BB221
:100A8000022213439AB27B695A8236E07B695B8A01
:100A90009BB21A1C0823134010D07B695B8A9BB25F
:100AA000082293439AB27B695A827B695B8A9BB224
:100AB000012213439AB27B695A821EE01DE07B69D2
:100AC0005B8A9BB21A1C0623134015D10D4B1B6881
:100AD0001B681B689C6C7B699A68F96880239B0083
:100AE000081C0121A0477B695B8A9BB20422134347
:100AF0009AB27B695A82FFE7C0460023181CBD46A4
:100B000007B090BDF81FFF1F80B500AF044B1B8AD4
:100B10009BB21A1C80235B001340181CBD4680BD8D
:100B20000800001090B585B000AF786039601A4BAE
:100B3000BB600023FB60BB681B8A9BB21A1C80232E
:100B40005B00134022D0BB681B8A9BB21A1C012396
:100B500013401BD1BB681B8A9BB2012213439AB27C
:100B6000BB681A821620FFF7D9FD0C4B1B681B6867
:100B70001B681C6DBB6819687A683B68081C81217A
:100B8000A047031CFB601620FFF7B2FDFB68181C92
:100B9000BD4605B090BDC04608000010F81FFF1FFD
:100BA00080B584B000AF78603960254BBB600E2300
:100BB000FB1800221A80BB68DB89002B38D0BB6889
:100BC000DB891A1E3B689A4200D91A1C0E23FB18B7
:100BD0001A80BB689A680E23FB181B887968081C6A
:100BE000111C1A1C00F0BCF8BB689A890E23FB1874
:100BF0001B88D3189AB2BB689A811620FFF78EFD26
:100C0000BB689A89BB68DB899A420ED3BB685B8A52
:100C10009BB2022293439AB2BB685A82BB680022FD
:100C2000DA81BB68DA89BB689A811620FFF760FD1C
:100C30000E23FB181B88181CBD4604B080BDC0469F
:100C40000800001080B500AF0B490B4A8023D35831
:100C5000C0221205134380228B5000F00FF800F0E1
:100C60001FF8FFF7F1FAFFF7FBFBFFF79FFCFFF719
:100C70007FFCBD4680BDC0460080044080B500AF0B
:100C80001020FFF7EDFA044A044B101C191C19221E
:100C9000FFF7FEFBBD4680BD00400440CC0E0000C7
:100CA00080B500AFFFF7F4FABD4680BD80B582B0D5
:100CB00000AF114B9B687B600F4B1A6880235B0071
:100CC00013400DD07B681B680C4A1A407B681A6081
:100CD0007B6808337A680832126808490A401A604B
:100CE000074B1B681B681B68DA68064B1B68181CDF
:100CF0009047BD4602B080BD00000840FFFFFFDF07
:100D0000F81FFF1F0400001080B586B000AF7860A8
:100D1000396000233B617B687B617B68FB6016E088
:100D20007B695B78042B08D17B693B613B695B790C
:100D30001A1E3B689A4200D10DE000233B617B699B
:100D40001B781A1C7B69D318FB60FB687B617B698D
:100D50001B78002BE4D13B69181CBD4606B080BD52
:100D600070B50F2A32D9041C0C430B1CA40731D1D7
:100D7000151C041C103D2D0901352D0149191E6853
:100D800026605E6866609E68A660DE681033E66076
:100D900010349942F3D10F2345191340032B1BD96B
:100DA0001C1F0023A4080134A400CE58EE500433C5
:100DB000A342FAD1ED18C91803231A4005D0002325
:100DC000CC5CEC5401339342FAD170BD051C002A6F
:100DD000F5D1FAE7051CF2E71A1CF8E770B58307AE
:100DE0003FD0541E002A3BD0CEB2031C032503E0A3
:100DF000621E002C34D0141C01335A1E16702B4274
:100E0000F6D1032C24D9FF250D402A0215432A04CC
:100E100015430F2C11D9261C103E36090136360118
:100E20001A1C9B19156055609560D560103293426D
:100E3000F8D10F221440032C0AD9261FB608013618
:100E4000B6001A1C9B1920C29342FCD10322144005
:100E5000002C05D0C9B21C1919700133A342FBD173
:080E600070BD141C031CCCE75B
:100E680012010002EF020140C91F830000010102C4
:040E78000301000072
:100E7C000A024F0002010080FA00080B0002020275
:100E8C000004090400000102020004000624000012
:100E9C001001042402020524060001000805820347
:100EAC000800FF0009040100020A00000400080504
:100EBC000102400000000805820240000000000012
:100ECC0000038100000481000005810000088100FE
:100EDC0000098100000B0200000C0200000D020052
:100EEC00000E0200001281000013810000170100A7
:100EFC0001090100010B8100010E81000114820027
:100F0C00011582000116810001178200011A81006F
:100F1C00011B8100011D8100020001000201010082
:040F2C00020382003A
:100F300048656C6C6F20576F726C6421210D0A003C
:100F40000403090A03746573740A03616E696F42CE
:100F5000036162636465666768696A6B6C6D6E6F76
:100F6000707172737475767778797A31323334357B
:040F70003600000047
:04000003000000C138
:00000001FF
